:100000000C9472000C9493000C9493000C94930045
:100010000C9493000C9493000C9493000C94930014
:100020000C9493000C9493000C9493000C94930004
:100030000C9493000C9493000C9493000C949300F4
:100040000C9493000C9495000C9493000C949300E2
:100050000C9493000C9493000C9493000C949300D4
:100060000C9493000C94AF020C9493000C949300A6
:100070000C9493000C9493000C9493000C949300B4
:100080000C9493000C9493000C9493000C949300A4
:100090000C9493000C9493000C9493000C94930094
:1000A0000C9493000C9493000C9493000C94930084
:1000B0000C9493000C9493000C9493000C94930074
:1000C0000C9493000C9493000C9493000C94930064
:1000D0000C9493000C9493000C9493000C94930054
:1000E0000C94930011241FBECFEFD1E2DEBFCDBF31
:1000F00000E00CBF12E0A0E0B2E0E2E7F7E000E0D1
:100100000BBF02C007900D92A434B107D9F72AE0C3
:10011000A4E4B2E001C01D92AA39B207E1F70E943F
:10012000F2020C94B7030C9400001F920F920FB6CA
:100130000F9211248F9380914902882371F080914E
:100140004E02811104C081E08093450206C0809177
:100150004E02813011F4809344028F910F900FBEB4
:100160000F901F9018951092C50089E18093C400EC
:10017000E1ECF0E088E1808380818068808386E024
:100180008093C20008959091C00095FFFCCF8093AA
:10019000C6000895CF93DF93EC018991882319F06D
:1001A0000E94C300FACFDF91CF9108950E94CA0048
:1001B0008AE00C94C30080EC80937C0080E88093FC
:1001C0007A0008958830C8F490917B00977F9093CF
:1001D0007B0090917C00907E892B80937C008091A5
:1001E0007A00806480937A0080917A0086FDFCCF4B
:1001F0008091780090917900089580E090E00895D2
:10020000CF93DF938AEA0E94C300C0E08091060288
:10021000C81780F4EC2FF0E0EE56F54F80810E9475
:10022000E200D82F892F0E94C3008D2F0E94C300A7
:10023000CF5FECCF10924502DF91CF910895EF92FE
:10024000FF921F93CF93DF938091480281113CC0AE
:1002500080914D020E94E20020914C02211112C0B7
:1002600020910002309101028217930758F04091CB
:10027000460250914702209100023091010242173C
:100280005307B0F020914C022130C9F420910002B4
:10029000309101022817390790F0409146025091A1
:1002A000470220910002309101022417350738F4EB
:1002B00021E02093480210924B0210924A02909340
:1002C0004702809346025BC08091060220914A0259
:1002D00030914B0240E8849FC00111242817390750
:1002E00018F0C0E0D0E025C0C0E080910602C81739
:1002F00008F045C0EC2FF0E0EE56F54F80810E94EB
:10030000E20020914A0230914B02A9014F5F5F4FFA
:1003100050934B0240934A02220F331FF901EE56CD
:10032000FD4F91838083CF5FE0CF80910602C80F9D
:10033000D11D80914A0290914B02C817D907C8F489
:100340008AEA0E94C30010E080910602181768F73D
:10035000FE01E10FF11DEE0FFF1FEE56FD4FE08095
:10036000F1808F2D0E94C3008E2D0E94C3001F5F5D
:10037000EBCF10924B0210924A0210924802109258
:100380004402DF91CF911F91FF90EF900895CF939A
:10039000DF93C1E8D0E018821092800010928200B2
:1003A0002091020230910302409104025091050213
:1003B00060E874E88EE190E00E940C0320E432E4EF
:1003C0004FE050E00E941C03DA01C9010197A10926
:1003D000B109909389008093880088818860888320
:1003E000888182608883EFE6F0E08081826080838C
:1003F000DF91CF910895CF93DF93EC0145E050E07A
:1004000067E072E00E947A03892B51F481E08093C7
:10041000490210924B0210924A02109248029CC06C
:1004200044E050E06DE072E0CE010E947A03892B37
:1004300019F41092490290C049E050E062E172E084
:10044000CE010E947A03892BA1F4CE0109960E9465
:100450005803092E000CAA0BBB0B80930202909349
:100460000302A0930402B0930502DF91CF910C9494
:10047000C7014DE050E06CE172E0CE010E947A03CA
:10048000892B31F56AE272E0CE010D960E94760367
:1004900010920602009709F45FC0209106022830EE
:1004A00008F05AC00E9458038830910550F4E0913A
:1004B000060291E09E0F90930602F0E0EE56F54F93
:1004C00080836AE272E080E090E00E947603E2CFEF
:1004D00049E050E06CE272E0CE010E947A03892B81
:1004E00061F48985803319F410924E0235C081334E
:1004F00099F581E080934E022FC04CE050E066E316
:1005000072E0CE010E947A03892B31F564E372E038
:10051000CE010C960E9476030097F1F00E945803DA
:1005200080934D0264E372E080E090E00E947603E5
:10053000009791F00E94580390930102809300026B
:1005400064E372E080E090E00E947603009721F07F
:100550000E94580380934C02DF91CF9108951F921F
:100560000F920FB60F9211240BB60F922F933F9359
:100570004F935F936F937F938F939F93AF93BF93AB
:10058000EF93FF938091C600E0918F028A3011F0C3
:100590008D3059F4F0E0E15BFD4F10828FE492E082
:1005A0000E94FB0110928F020AC0EF3340F491E0E9
:1005B0009E0F90938F02F0E0E15BFD4F8083FF91EF
:1005C000EF91BF91AF919F918F917F916F915F91CB
:1005D0004F913F912F910F900BBE0F900FBE0F9038
:1005E0001F9018950E94B3000E94DB000E94C70173
:1005F00078941092920A81E08093060280914502DD
:10060000813019F40E940001F9CF809144028130B9
:10061000A9F70E941F01F2CFDB018F939F930E94E5
:100620003E03BF91AF91A29F800D911DA39F900D9E
:10063000B29F900D11240895A1E21A2EAA1BBB1B94
:10064000FD010DC0AA1FBB1FEE1FFF1FA217B3079E
:10065000E407F50720F0A21BB30BE40BF50B661FB4
:10066000771F881F991F1A9469F760957095809578
:1006700090959B01AC01BD01CF0108950E944903F3
:10068000A59F900DB49F900DA49F800D911D1124E6
:100690000895A29FB001B39FC001A39F700D811D5B
:1006A0001124911DB29F700D811D1124911D08957B
:1006B000FC0188279927E89421912032E9F3293019
:1006C00010F02E30C8F32B3241F02D3239F46894FB
:1006D00004C00E94AF03820F911D219120532A3044
:1006E000C0F31EF4909581959F4F089540E952E024
:1006F0000C948803FB01DC014150504030F08D9197
:100700000190801919F40020B9F7881B990B0895FE
:10071000FA01A191B081009719F41097E1F0CD0191
:10072000DC01CD010D90002011F4C00113C0FB01CC
:100730002191222319F02015D9F7F3CFFB01219144
:10074000201519F41E92119606C02223C1F70D90B0
:100750000020A1F7D001FA01A193B08308957AE0B7
:10076000979F902D879F802D910D11240895F894C7
:02077000FFCFB9
:100772000002E80300000153544152540053544F05
:1007820050005345545F4652455120005345545F33
:100792004348414E4E454C5320002C005345545F74
:1007A2004D4F444520005345545F545249474745F5
:0407B20052200000D1
:00000001FF
